:020000040800F2
:100000000004002061720008C5720008C572000873
:10001000C5720008C5720008C57200080000000023
:100020000000000000000000000000000162000865
:10003000C572000800000000C162000805630008E6
:10004000C5720008C5720008C5720008C5720008B4
:10005000C5720008C5720008C5720008C5720008A4
:10006000C5720008C5720008C5720008C572000894
:10007000C5720008C5720008C5720008C572000884
:10008000C5720008C5720008C5720008C572000874
:10009000C5720008C5720008C5720008C572000864
:1000A000C5720008C5720008C5720008C572000854
:1000B000D9360008C572000835200008C57200084E
:1000C000C5720008C5720008C5720008312000081A
:1000D000C5720008C5720008C5720008C572000824
:1000E000C5720008C5720008C57200080000000053
:1000F0000000000000000000000000000000000000
:0C01000000000000000000005FF8E0F1CB
:10020000323032302D31302D31315432303A3134B8
:100210003A35355A000000006462326365303200BE
:1002200073746D333266312D626C696E6B656E620C
:04023000696B650091
:10040000AC7F0008002800201028002014280020BD
:10041000D42B0020844641EA000313F0030349D1A2
:10042000403A23D30B6803604B6843608B6883605A
:10043000CB68C3600B6903614B6943618B6983615E
:10044000CB69C3610B6A03624B6A43628B6A836246
:10045000CB6AC3620B6B03634B6B43638B6B83632E
:10046000CB6BC36340304031403ADBD230320BD3E8
:100470000B6803604B6843608B688360CB68C36024
:1004800010301031103AF3D20C3205D351F8043B3E
:1004900040F8043B043AF9D2043208D0D2071CBF1A
:1004A00011F8013B00F8013B01D30B880380604643
:1004B000704700BF082A13D38B07B1D010F0030395
:1004C000AED0C3F10403D21ADB071CBF11F8013B05
:1004D00000F8013BA4D331F8023B20F8023B9FE730
:1004E000043AD9D3013A11F8013B00F8013BF9D2A3
:1004F0000B7803704B7843708B788370604670473D
:1005000053B94AB9002908BF00281CBF4FF0FF317A
:100510004FF0FF3000F06EB9ADF1080C6DE904CE7C
:1005200000F006F8DDF804E0DDE9022304B07047CE
:100530002DE9F047089E0D4604468E46002B40F0FC
:1005400083808A42174647D9B2FA82F34BB1C3F18E
:10055000200105FA03FE20FA01F19F4041EA0E0E48
:100560009C404FEA1748BEFBF8FC1FFA87F908FBCE
:100570001CE20CFB09F0210C41EA024290420AD92C
:10058000BA180CF1FF3180F01881904240F21581C9
:10059000ACF1020C3A44121AB2FBF8F008FB10223C
:1005A00000FB09F1A4B244EA0244A14209D93C1972
:1005B00000F1FF3280F00381A14240F20081023855
:1005C0003C44641A002140EA0C401EB10022DC4089
:1005D000C6E90042BDE8F08702B9FFDEB2FA82F355
:1005E000002B4FD18D1A01214FEA124E1FFA82F8CB
:1005F000B5FBFEFC0EFB1C5508FB0CF0220C42EA7E
:100600000545A84207D97D190CF1FF3202D2A84254
:1006100000F2E98094462D1AB5FBFEF00EFB105552
:1006200008FB00F8A4B244EA0544A04507D93C19E8
:1006300000F1FF3202D2A04500F2D9801046A4EBAF
:10064000080440EA0C40C0E78B4208D9002E00F0B5
:10065000B1800021C6E900050846BDE8F087B3FA7D
:1006600083F100294BD1AB4202D3824200F2B98020
:10067000841A65EB030301209E46002EAAD0C6E92A
:10068000004EA7E79F40C3F12002D1404FEA174E2A
:10069000B1FBFEF01FFA87F80EFB101124FA02F2EC
:1006A0009D4000FB08FC2A43150C45EA0145AC457A
:1006B00004FA03F409D97D1900F1FF3180F08F802D
:1006C000AC4540F28C8002383D44A5EB0C05B5FBEF
:1006D000FEF10EFB115C01FB08F995B245EA0C45F1
:1006E000A94507D97D1901F1FF3274D2A94572D904
:1006F00002393D44A5EB090541EA004178E7C1F123
:1007000020078B4022FA07FC4CEA030C25FA07F479
:100710004FEA1C4EB4FBFEF91FFA8CF80EFB19448D
:1007200020FA07F309FB08FA8D401D432B0C43EA1E
:100730000444A24502FA01F200FA01F309D91CEBC4
:10074000040409F1FF3048D2A24546D9A9F10209B3
:100750006444A4EB0A04B4FBFEF00EFB104400FB5F
:1007600008FAADB245EA0444A24508D91CEB0404DA
:1007700000F1FF352DD2A2452BD90238644440EA5E
:100780000940A0FB0289A4EB0A044C45C6464D462D
:1007900019D316D05EB1B3EB0E0264EB050404FA74
:1007A00007F722FA01F31F43CC40C6E90074002189
:1007B000BDE8F087314630460CE78C46EBE6104644
:1007C000FFE64345E6D2B8EB020E69EB0C050138B3
:1007D000E0E72846D3E711468CE78146B9E70846AB
:1007E00073E7084649E7ACF1020C3D4413E70238D1
:1007F0003C4424E7704700BF03681A6812F0800F7A
:10080000FAD0596003681B6813F0400FFAD07047A4
:100810000268D36943F00403D3614B681B68DB684B
:10082000C3F30223DA1E012393400A681B01DBB2E3
:1008300082F81E330B684FF080421A60334B1A68FF
:1008400022F080021A601A6842F080021A601A6868
:1008500042F400721A60BDF80020013ADA62002208
:100860009A625A6942F001025A619A6822F00702BC
:100870009A609A6842F001029A609A6922F0030233
:100880009A619A6942F001029A619A6922F440726F
:100890009A619A6942F480729A619A6922F00C0214
:1008A0009A619A699A619A6922F00C029A619A692E
:1008B0009A619A6922F0F0029A619A6942F0F00214
:1008C0009A619A6922F470429A619A6942F470427C
:1008D0009A611A6A22F002021A621A6A1A621A6A83
:1008E00022F020021A621A6A1A621A6A42F011028F
:1008F0001A629A6842F040029A60DA6842F0400256
:10090000DA601A6842F001021A607047000800407D
:100910000268D36943F00103D3614B681B68DB684D
:10092000C3F30223DA1E012393400A681B01DBB2E2
:1009300082F81C330B684FF080521A604FF08043EE
:100940001A6822F080021A601A6842F080021A6067
:100950001A6842F400721A600022DA624FF0FF3225
:100960009A625A6942F001025A619A6942F00102A0
:100970009A619A6922F0F0029A619A6942F0F00253
:100980009A611A6A22F002021A621A6A42F001029D
:100990001A62DA6842F00202DA601A6842F0010272
:1009A0001A60704710B40369027D19681C799AB106
:1009B0004FF6FF720123A3409BB20C6823EA0201A9
:1009C0001340226843EA01431361037D83F001036E
:1009D0000375002010BC70470022EBE710B50446F9
:1009E000024B036006F092FC204610BD887C000894
:1009F00010B50446044B036006F088FC182120461D
:100A000003F0CAF9204610BD887C000810B50446E2
:100A1000024B036006F07AFC204610BD5C7C0008A7
:100A200010B50446044B036006F070FC1821204604
:100A300003F0B2F9204610BD5C7C000810B50446F6
:100A4000024B036006F062FC204610BD447C0008A7
:100A500010B50446044B036006F058FC18212046EC
:100A600003F09AF9204610BD447C0008F0B583B02D
:100A700005464FF0FF3409E02B7D8C4C04FB03F45A
:100A80008B4BA3FB0434A40901280ED123466A46EC
:100A90004FF0FF31002004F02DFD009B012BEBD027
:100AA000022BF1D14FF0FF34EEE72E69002033E046
:100AB0004FF0070C1DE033441A7902F0F00242EACD
:100AC0000C021A71013C002C20DB00EB40038A0071
:100AD00002EB83032746C4F1070203EB520302AA89
:100AE0000A4412F8042C224112F0010FE0D04FF01A
:100AF000010C17F00107DED0002FE3D033441A7940
:100B000002F00F0242EA0C121A71DBE701310229EE
:100B100001D80724D7E70130122807D800218DF823
:100B200004108DF805108DF80610F0E733681B6887
:100B30001A68536843F004035360344654F8043B86
:100B40001A68587911688B6803F08303022B01D06F
:100B5000CB68F7E711680B6823F003030B600228EA
:100B600010D0032814D0012806D011684B6843F038
:100B700020034B60002314E011680B6843F001036D
:100B80000B60F2E711680B6843F002030B60ECE7BF
:100B900011680B6843F003030B60E6E7E05CC86094
:100BA0000133E32B07D81168886810F0020FFAD0E0
:100BB000002CF3D1F4E711688B6803F08303022B58
:100BC00001D0CB68F7E74B6823F020034B60336814
:100BD0001A68587911688B6803F08303022B01D0DF
:100BE000CB68F7E711680B6823F003030B6002285A
:100BF00010D0032814D0012806D011684B6843F0A8
:100C000020034B6000231AE011680B6843F00103D6
:100C10000B60F2E711680B6843F002030B60ECE72E
:100C200011680B6843F003030B60E6E711688868FE
:100C300010F0020FFAD01F48185CC8600133002B77
:100C4000F4D011688B6803F08303022B01D0CB68CA
:100C5000F7E74B6823F020034B6033681B681A6882
:100C6000536823F0040353604FF0100383F311889B
:100C7000BFF36F8FBFF34F8FEA68536819680B6932
:100C800043F004030B6111684B6843F480734B60BD
:100C900011680B6843F007030B6013685B6813F07F
:100CA000010FFAD172B630BF03B0F0BD40420F0061
:100CB000D34D6210347D0008F0B484B0B44AD17DC5
:100CC000937D5B1A5BB29375002B16DBB0494B68C2
:100CD00003EB43035A00AF4B9A5C0B7B8BB9002AA2
:100CE00000F0B280012A00F0EF80A94B93F9163092
:100CF000282B40F0EE80002391E1134628229A75BC
:100D0000E4E708680E898C7ACD7A40F2FA5303FB47
:100D100006F303F5004319141E0CB3F1FF7F33D221
:100D2000FE2E29D85FFA81FC0027FF21E643F6B2A8
:100D300004FB011106EB212105FB01131B0203F447
:100D40007F0304FB0CC106EB212105FB011101F41B
:100D50007F410B4304FB077106EB212605FB06666A
:100D600043EA1623190A8DF80010190C8DF80110AA
:100D70008DF8023000255FE0C9B2C1F1FE01C9B2B1
:100D800000274FF0FF0CD1E7B6F57F7F11D2B6F503
:100D90003F7F06D8C9B20231CFB24FF0FF0C00211D
:100DA000C4E7C9B2C1F1FC015FFA81FCFF27002151
:100DB000BCE740F2F9539E4212D840F2FA439E42F9
:100DC00006D8C9B20431C9B2FF274FF0000CADE715
:100DD000C9B2C1F1FA01CFB24FF0000CFF21A5E773
:100DE0000027BC46FF21A1E7072717E003441C7931
:100DF00004F0F0043C431C71013900291BDB0E4652
:100E0000C1F107035B0803EB850304AC2C4414F821
:100E1000104C0C4114F0010FE6D0012716F001062A
:100E2000E4D0002EE8D003441C7904F00F0444EA17
:100E300007141C71E0E70135022D01D80721DCE71A
:100E4000534B002119734AE7514B5B7D002B40D077
:100E500001242FE007271AE02B44187900F0F00056
:100E600038431871013A002A1EDB04EB440083006A
:100E700003EB81031646C2F1070003EB500344481D
:100E80000844807C104110F0010FE3D0012716F0D8
:100E90000106E1D0002EE5D02B44187900F00F00B8
:100EA00040EA07101871DDE70131022901D8072255
:100EB000D9E70134122C03D8354B1D680021F4E723
:100EC000334B00225A7504E0314B93F91630282B2E
:100ED0001AD04FF0100383F31188BFF36F8FBFF365
:100EE0004F8F2B4B5A6A136819684B6843F0040301
:100EF0004B60136851791868826802F08302022AF5
:100F000000F09E81C268F6E7214B1B7E002B39D092
:100F1000012531E04FF0070C1BE03344187900F055
:100F2000F00040EA0C001871013900291EDB05EBC6
:100F30004500830003EB84030F46C1F1070003EB78
:100F4000500313482044807C084110F0010FE1D089
:100F5000944617F00107E0D0002FE5D0334418790C
:100F600000F00F0040EA0C101871DDE70134022C8C
:100F700001D80721D9E70135122D49D8044B1E6845
:100F80000024F4E7012537E04FF0070C21E000BF13
:100F900014280020047D000833441C7904F0F00478
:100FA00044EA0C041C71013800281FDB05EB4504E2
:100FB000A30003EB81030746C0F1070403EB5403CE
:100FC00004AC0C4414F80C4C044114F0010FDBD0B9
:100FD000944617F00107DFD0002FE4D033441C798A
:100FE00004F00F0444EA0C141C71DCE701310229FF
:100FF00001D80720D8E70135122D09D8B14B1E685A
:1010000000218DF804108DF805108DF80610EEE71C
:10101000AC4A137E83F0010313765AE71346082B7C
:1010200000F2FD805A1CA749C869017A81B903F111
:101030000A010068A34C94F8204030F8140040FAEC
:1010400003F313F0010F6FD09E4B1E68002530E0B4
:10105000C3F11201EDE74FF0070C1CE033441C799B
:1010600004F0F00444EA0C041C71013800281FDB72
:1010700002EB4204A30003EB85030746C0F107041B
:1010800003EB54038F4C2C44A47C044114F0010F57
:10109000E1D04FF0010C17F00107DFD0002FE4D0B2
:1010A00033441C7904F00F0444EA0C141C71DCE78F
:1010B0000135022D01D80720D8E7824B1E68002594
:1010C0002DE04FF0070C1CE033441C7904F0F004D1
:1010D00044EA0C041C71013800281FDB01EB4104B9
:1010E000A30003EB85030746C0F1070403EB540399
:1010F000744C2C44A47C044114F0010FE1D04FF057
:10110000010C17F00107DFD0002FE4D033441C7925
:1011100004F00F0444EA0C141C71DCE70135022DC5
:101120003FF67CAF0720D7E7664B1E6800208DF89E
:101130000C008DF80D008DF80E002EE04FF0070C1E
:101140001DE033441D7905F0F00545EA0C051D71DD
:10115000013C002C20DB02EB4205AB0003EB8003DB
:101160002746C4F1070503EB550304AD054415F804
:10117000045C254115F0010FE0D04FF0010C17F091
:101180000107DED0002FE3D033441D7905F00F05B1
:1011900045EA0C151D71DBE70130022801D8072450
:1011A000D7E7484B1E6800208DF808008DF809002D
:1011B0008DF80A002EE04FF0070C1DE033441D7936
:1011C00005F0F00545EA0C051D71013C002C20DB03
:1011D00001EB4105AB0003EB80032746C4F1070593
:1011E00003EB550304AD054415F8085C254115F0E3
:1011F000010FE0D04FF0010C17F00107DED0002FF7
:10120000E3D033441D7905F00F0545EA0C151D7137
:10121000DBE7013002283FF601AF0724D6E7294A71
:1012200092F820300133DBB282F82030D269526864
:101230009342FFF44EAE234B002283F8202048E671
:101240001868026822F003020260022910D0032904
:1012500014D0012906D019684A6842F020024A6079
:10126000002217E019680A6842F001020A60F2E7FA
:1012700019680A6842F002020A60ECE719680A6815
:1012800042F003020A60E6E70E49114491F8281083
:10129000C1600132E32A06D81868816811F0020F94
:1012A000FAD0F1E7D2681A68916801F08301022947
:1012B000F8D1536823F020035360024B5A6A136835
:1012C000517902E014280020C2681868826802F090
:1012D0008302022AF8D11868026822F00302026031
:1012E000022910D0032914D0012906D019684A68B0
:1012F00042F020024A60002215E019680A6842F0B4
:1013000001020A60F2E719680A6842F002020A6004
:10131000ECE719680A6842F003020A60E6E712483F
:10132000105CC86001322AB91968886810F0020F91
:10133000FAD0F4E71A68916801F08301022901D01C
:10134000D268F7E7536823F020035360074B5B6ACA
:101350001B681A68536823F004035360002080F36D
:10136000118804B0F0BC7047347D000814280020B8
:10137000036913F0400F02D1002303617047F0B4FA
:10138000426A05684B6803EB4303874C04EB430355
:101390005C78D2B215F0100F13D04FF0FF3381F804
:1013A000223081F82120012C7FD0022C00F0EB802C
:1013B0004CB1036923F04003036100230361F0BCD7
:1013C00070470123EBE703EB83035B019BB2CA8900
:1013D00013449BB2CB810D7C4E7C40F2FA5202FB4F
:1013E00003F303F500431A141F0CB3F1FF7F2FD250
:1013F000FE2F26D85FFA82FCFF22EF43FFB205FBE7
:10140000022207EB222206FB02231B0203F47F03C6
:1014100005FB0CC207EB222206FB022202F47F42EC
:10142000134305FB044407EB242406FB044443EA6E
:1014300014231A0A8A741A0CCA740B7501234B758B
:10144000B7E7D2B2C2F1FE02D2B24FF0FF0CD4E73E
:10145000B7F57F7F11D2B7F53F7F06D8D2B2931C84
:101460002246DCB24FF0FF0CC7E7D3B2C3F1FC0356
:101470005FFA83FC2246FF24BFE740F2F9539F4204
:1014800010D840F2FA439F4205D8D2B20432D2B209
:10149000A446FF24B1E7D3B2C3F1FA03A446DCB2F9
:1014A000FF22AAE7A446FF22A7E74C7C234403F0CF
:1014B0003F044C74CA890D7C40F2FA5303FB02F3DB
:1014C00003F500431A141E0CB3F1FF7F2FD2FE2E3A
:1014D00026D8D3B20027FF22EE43F6B205FB022244
:1014E00006EB222204FB0222120202F47F0205FB19
:1014F000033306EB232304FB033303F47F431A4334
:1015000005FB077306EB232604FB066642EA162357
:101510001A0A8A741A0CCA740B7501234B7548E7B2
:10152000D2B2C2F1FE02D2B20027FF23D4E7B6F551
:101530007F7F0FD2B6F53F7F05D8D3B20233DFB23B
:10154000FF230022C8E7D3B2C3F1FC03DBB2FF27BD
:101550000022C1E740F2F9539E4210D840F2FA430C
:101560009E4205D8D2B20432D2B2FF270023B3E79D
:10157000D3B2C3F1FA03DFB20023FF22ACE70027A6
:101580003B46FF22A8E79B00DBB2CA7D13445BB257
:10159000CB75002B05DD0E2B7FF70BAF0E23CB7524
:1015A00007E70123CB7504E7047D00082DE9F0432C
:1015B000072907D8844601F00704A60006F1020EA9
:1015C000224C03E000F1040CF5E70434204DAC425A
:1015D00005D02578AA42F8D16578AB42F5D11C4DEB
:1015E000AC4221D0A57894F80380DCF800400327B2
:1015F00007FA06F907FA0EF749EA070724EA070788
:10160000CCF80070DCF8007005FA06F408FA0EFE5B
:1016100044EA0E043C43CCF800401AB9012B06D032
:10162000022B0BD0BDE8F083A5F12004DAE7C368F4
:10163000012202FA01F11943C160F3E7C3680122F4
:1016400002FA01F123EA0103C360EBE7387D0008E9
:10165000587D000803686BB3012B20D00022C368BB
:1016600063B3012B2ED0022B2ED0032B2ED0042BB4
:101670002ED0052B2ED0062B2ED0072B2ED0082BAC
:101680002ED0092B2ED00A2B2ED00B2B2ED00C2B8C
:101690002ED00D2B2ED00E2B0ED000200FE0836805
:1016A0000BB94268DBE7012B01D00022D7E7426883
:1016B0005208D4E7104AD2E7102000E0022002FBD3
:1016C00000F070470320FAE70420F8E70520F6E76A
:1016D0000620F4E70720F2E70820F0E70920EEE70C
:1016E0000A20ECE70B20EAE70C20E8E70D20E6E70C
:1016F0000E20E4E70F20E2E700093D0003464069C1
:1017000000285AD11A69002A00F06783012A02D002
:10171000022A02D0704758687047196869B30129D6
:1017200020D00146DB686BB3012B2AD0022B2CD0D2
:10173000032B2CD0042B2CD0052B2CD0062B2CD0FB
:10174000072B2CD0082B2CD0092B2CD00A2B2CD0DB
:101750000B2B2CD00C2B2CD00D2B2CD00E2B0ED0D9
:1017600002460FE0996809B95968DBE7012901D001
:101770000146D7E759684908D4E79F49D2E71022C4
:1017800000E0032201FB02F070470422FAE7052281
:10179000F8E70622F6E70722F4E70822F2E7092233
:1017A000F0E70A22EEE70B22ECE70C22EAE70D2233
:1017B000E8E70E22E6E70F22E4E7082815D009281B
:1017C00071D00A2800F0CD800B2800F02C810C2865
:1017D00000F087810D2800F0E2810E2800F03D82A4
:1017E0000F2800F09C82002094E71A69002A57D045
:1017F000012A03D0022A03D0002052E0586850E0AA
:10180000196869B3012920D00021DB686BB3012B73
:101810002AD0022B2CD0032B2CD0042B2CD0052B20
:101820002CD0062B2CD0072B2CD0082B2CD0092BFE
:101830002CD00A2B2CD00B2B2CD00C2B2CD00D2BDE
:101840002CD00E2B0ED000220FE0996809B95968F0
:10185000DBE7012901D00021D7E759684908D4E71F
:101860006549D2E7102200E0032201FB02F018E0F4
:101870000422FAE70522F8E70622F6E70722F4E752
:101880000246F2E70922F0E70A22EEE70B22ECE734
:101890000C22EAE70D22E8E70E22E6E70F22E4E752
:1018A0005648400870471A69002A57D0012A03D0C9
:1018B000022A03D0002052E0586850E0196869B34A
:1018C000012920D00021DB686BB3012B2AD0022B29
:1018D0002CD0032B2CD0042B2CD0052B2CD0062B5A
:1018E0002CD0072B2CD0082B2CD0092B2CD00A2B3A
:1018F0002CD00B2B2CD00C2B2CD00D2B2CD00E2B1A
:101900000ED000220FE0996809B95968DBE7012978
:1019100001D00021D7E759684908D4E73649D2E712
:10192000102200E0032201FB02F018E00422FAE793
:101930000522F8E70622F6E70722F4E70822F2E795
:101940000246F0E70A22EEE70B22ECE70C22EAE778
:101950000D22E8E70E22E6E70F22E4E72748800899
:1019600070471A69002A5BD0012A03D0022A03D0EB
:10197000002056E0586854E0196869B3012920D066
:101980000021DB686BB3012B2AD0022B2CD0032B58
:101990002CD0042B2CD0052B2CD0062B30D0072B91
:1019A00030D0082B30D0092B30D00A2B30D00B2B65
:1019B00030D00C2B30D00D2B30D00E2B0ED000227F
:1019C0000FE0996809B95968DBE7012901D00021C6
:1019D000D7E759684908D4E70749D2E7102200E061
:1019E000032201FB02F01CE00422FAE70522F8E7DB
:1019F0000622F6E70722F4E700093D0000127A000C
:101A00000822EEE70922ECE70246EAE70B22E8E7C4
:101A10000C22E6E70D22E4E70E22E2E70F22E0E7E0
:101A20009348C00870471A69002A57D0012A03D08A
:101A3000022A03D0002052E0586850E0196869B3C8
:101A4000012920D00021DB686BB3012B2AD0022BA7
:101A50002CD0032B2CD0042B2CD0052B2CD0062BD8
:101A60002CD0072B2CD0082B2CD0092B2CD00A2BB8
:101A70002CD00B2B2CD00C2B2CD00D2B2CD00E2B98
:101A80000ED000220FE0996809B95968DBE70129F7
:101A900001D00021D7E759684908D4E77549D2E752
:101AA000102200E0032201FB02F018E00422FAE712
:101AB0000522F8E70622F6E70722F4E70822F2E714
:101AC0000922F0E70A22EEE70246ECE70C22EAE7F9
:101AD0000D22E8E70E22E6E70F22E4E7644800095A
:101AE00070471A69002A57D0012A03D0022A03D06E
:101AF000002052E0586850E0196869B3012920D0ED
:101B00000021DB686BB3012B2AD0022B2CD0032BD6
:101B10002CD0042B2CD0052B2CD0062B2CD0072B13
:101B20002CD0082B2CD0092B2CD00A2B2CD00B2BF3
:101B30002CD00C2B2CD00D2B2CD00E2B0ED0002209
:101B40000FE0996809B95968DBE7012901D0002144
:101B5000D7E759684908D4E74649D2E7102200E0A0
:101B6000032201FB02F018E00422FAE70522F8E75D
:101B70000622F6E70722F4E70822F2E70922F0E757
:101B80000A22EEE70B22ECE70246EAE70D22E8E73D
:101B90000E22E6E70F22E4E73548800970471A690C
:101BA000002A57D0012A03D0022A03D0002052E095
:101BB000586850E0196869B3012920D00021DB681A
:101BC0006BB3012B2AD0022B2CD0032B2CD0042B4F
:101BD0002CD0052B2CD0062B2CD0072B2CD0082B4F
:101BE0002CD0092B2CD00A2B2CD00B2B2CD00C2B2F
:101BF0002CD00D2B2CD00E2B0ED000220FE099688C
:101C000009B95968DBE7012901D00021D7E75968F4
:101C10004908D4E71749D2E7102200E0032201FB6C
:101C200002F018E00422FAE70522F8E70622F6E7B8
:101C30000722F4E70822F2E70922F0E70A22EEE79A
:101C40000B22ECE70C22EAE70246E8E70E22E6E781
:101C50000F22E4E70648C00970471A69002A5BD0E2
:101C6000012A03D0022A07D0002256E05A6854E025
:101C700000127A0000093D00196869B3012920D0DB
:101C80000021DB686BB3012B2AD0022B2CD0032B55
:101C90002CD0042B2CD0052B2CD0062B2CD0072B92
:101CA0002CD0082B2CD0092B2CD00A2B2CD00B2B72
:101CB0002CD00C2B2CD00D2B2CD00E2B0ED0002288
:101CC0000FE0996809B95968DBE7012901D00021C3
:101CD000D7E759684908D4E74149D2E7102200E024
:101CE000032201FB02F218E00422FAE70522F8E7DA
:101CF0000622F6E70722F4E70822F2E70922F0E7D6
:101D00000A22EEE70B22ECE70C22EAE70D22E8E7D5
:101D10000246E6E70F22E4E7324A100A70471A69E2
:101D2000002A57D0012A03D0022A03D0002252E011
:101D30005A6850E0196869B3012920D00021DB6896
:101D40006BB3012B2AD0022B2CD0032B2CD0042BCD
:101D50002CD0052B2CD0062B2CD0072B2CD0082BCD
:101D60002CD0092B2CD00A2B2CD00B2B2CD00C2BAD
:101D70002CD00D2B2CD00E2B0ED000220FE099680A
:101D800009B95968DBE7012901D00021D7E7596873
:101D90004908D4E71249D2E7102200E0032201FBF0
:101DA00002F218E00422FAE70522F8E70622F6E735
:101DB0000722F4E70822F2E70922F0E70A22EEE719
:101DC0000B22ECE70C22EAE70D22E8E70E22E6E719
:101DD0000246E4E7034A500A70470248704700BFD2
:101DE00000093D0000127A0030B4016042601169C0
:101DF000002957D0012903D0022903D0002552E041
:101E0000556850E014686CB3012C20D00025D468CC
:101E10006CB3012C2AD0022C2CD0032C2CD0042CF7
:101E20002CD0052C2CD0062C2CD0072C2CD0082CF8
:101E30002CD0092C2CD00A2C2CD00B2C2CD00C2CD8
:101E40002CD00D2C2CD00E2C0ED000210FE094683D
:101E50000CB95568DBE7012C01D00025D7E75568A0
:101E60006D08D4E76E4DD2E7102100E0032105FB99
:101E700001F518E00421FAE70521F8E70621F6E765
:101E80000721F4E70821F2E70921F0E70A21EEE74C
:101E90000B21ECE70C21EAE70D21E8E70E21E6E74C
:101EA0000F21E4E75F4D1C68216821F007012160E4
:101EB0005D498D4200F297801B68196819601368AC
:101EC000012B00F0A1801369012B00F09B800024FE
:101ED00001680B6823F480330B604CB101680B6818
:101EE00043F480330B6003681B6813F4003FFAD09F
:101EF00001684B6823F470134B6004686168D36811
:101F00009B0403F470130B43636001684B6823F474
:101F100000334B600468616893685B0403F400332A
:101F20000B43636001684B6823F480334B600468A3
:101F3000616813681B0403F480330B43636001681A
:101F40004B6823F460534B6004686168D369DB021B
:101F500003F460530B43636001684B6823F4E06350
:101F60004B600468616893691B0203F4E0630B43F0
:101F7000636001684B6823F0F0034B60046861689C
:101F800053691B01DBB20B436360146901680B6882
:101F900023F080730B60022C09D101680B6843F0B9
:101FA00080730B6003681B6813F0007FFAD014691C
:101FB00001684B6823F003034B6001684B6804F031
:101FC00003052B434B6001684B6883EA840313F0DD
:101FD0000C0FF8D11368CBB11369BBB10B6823F0B8
:101FE00001030B601AE011498D4205D819680B688E
:101FF00043F001030B6062E719680B6843F00203CA
:102000000B605CE7012463E7012461E70B6813F0D0
:10201000010FFBD00B6843F001030B6030BC70472D
:1020200000093D0000127A0000366E01006CDC02EF
:102030007047000008B502490248FFF799F908BD4A
:1020400014280020000800400EB400B582B003AB95
:1020500053F8042B01930449006805F029FB02B0F2
:102060005DF804EB03B07047F907000838B5054682
:10207000C368426807490848FFF7E6FF2B68DB683A
:10208000284698470446E86802F072FD002CF5D017
:1020900038BD00BFCC7B00082029002038B505469C
:1020A000C368426806490748FFF7CEFF2B69686995
:1020B00098470446E86802F05BFD002CF6D038BD76
:1020C000CC7B00082029002070B504460D464268EC
:1020D0005068C169002940F01A834369002B5CD124
:1020E0000269002A00F01183012A27D0022A40F059
:1020F0005485016881B3012923D01E46C16881B38C
:1021000001292DD0022930D0032930D0042930D024
:10211000052930D0062930D0072930D0082930D001
:10212000092930D00A2930D00B2930D00C2930D0E1
:102130000D2930D00E2911D01A4612E0436800F064
:102140002CBD816809B94668D8E7012901D01E462F
:10215000D4E746687608D1E7A14ECFE7102200E029
:10216000032206FB02F300F018BD0422F9E7052262
:10217000F7E70622F5E70722F3E70822F1E709224D
:10218000EFE70A22EDE70B22EBE70C22E9E70D224D
:10219000E7E70E22E5E70F22E3E7082B16D0092B2D
:1021A00071D00A2B00F0CC800B2B00F02A810C2B75
:1021B00000F083810D2B00F0DC810E2B00F03A82C1
:1021C0000F2B00F093820B4600F0E7BC0269002A57
:1021D00055D0012A26D0022A52D106687EB3012E9C
:1021E00022D00E46C06878B301282CD002282ED009
:1021F00003282ED004282ED005282ED006282ED035
:1022000007282ED008282ED009282ED00A282ED014
:102210000B282ED00C282ED00D282ED00E2810D012
:102220000A4611E041682BE086680EB94668D9E796
:10223000012E01D00E46D5E746687608D2E7684EF3
:10224000D0E7102200E0032206FB02F118E004228E
:10225000FAE70522F8E70622F6E70722F4E71A462E
:10226000F2E70922F0E70A22EEE70B22ECE70C2264
:10227000EAE70D22E8E70E22E6E70F22E4E75949F4
:102280004B0800F08ABC0269002A55D0012A26D0EA
:10229000022A52D106687EB3012E22D00E46C068B3
:1022A00078B301282CD002282ED003282ED0042861
:1022B0002ED005282ED006282ED007282ED008286C
:1022C0002ED009282ED00A282ED00B282ED00C284C
:1022D0002ED00D282ED00E2810D00A4611E04168CD
:1022E0002BE086680EB94668D9E7012E01D00E466C
:1022F000D5E746687608D2E7394ED0E7102200E0ED
:10230000032206FB02F118E00422FAE70522F8E7AF
:102310000622F6E70722F4E70822F2E71A46F0E77A
:102320000A22EEE70B22ECE70C22EAE70D22E8E7AF
:102330000E22E6E70F22E4E72A498B0800F02DBCC5
:102340000269002A5AD0012A26D0022A57D10668EB
:102350007EB3012E22D00E46C06878B301282CD05F
:1023600002282ED003282ED004282ED005282ED0C7
:1023700006282ED007282ED008282ED0092833D0A2
:102380000A2833D00B2833D00C2833D00D2833D073
:102390000E2810D00A4611E0416830E086680EB978
:1023A0004668D9E7012E01D00E46D5E74668760883
:1023B000D2E70B4ED0E7102200E0032206FB02F129
:1023C0001DE00422FAE70522F8E70622F6E70722D5
:1023D000F4E70822F2E70922F0E71A46EEE700BF29
:1023E00000093D0000127A000B22E7E70C22E5E726
:1023F0000D22E3E70E22E1E70F22DFE78B49CB084E
:10240000CBE30269002A55D0012A26D0022A52D1F4
:1024100006687EB3012E22D00E46C06878B301282C
:102420002CD002282ED003282ED004282ED0052808
:102430002ED006282ED007282ED008282ED00928E6
:102440002ED00A282ED00B282ED00C282ED00D28C6
:102450002ED00E2810D00A4611E041682BE0866885
:102460000EB94668D9E7012E01D00E46D5E7466879
:102470007608D2E76E4ED0E7102200E0032206FB7A
:1024800002F118E00422FAE70522F8E70622F6E74F
:102490000722F4E70822F2E70922F0E70A22EEE732
:1024A0001A46ECE70C22EAE70D22E8E70E22E6E7FF
:1024B0000F22E4E75D490B096FE30269002A55D05A
:1024C000012A26D0022A52D106687EB3012E22D0DC
:1024D0000E46C06878B301282CD002282ED00328DD
:1024E0002ED004282ED005282ED006282ED007283E
:1024F0002ED008282ED009282ED00A282ED00B281E
:102500002ED00C282ED00D282ED00E2810D00A4602
:1025100011E041682BE086680EB94668D9E7012EC4
:1025200001D00E46D5E746687608D2E7404ED0E7A0
:10253000102200E0032206FB02F118E00422FAE771
:102540000522F8E70622F6E70722F4E70822F2E779
:102550000922F0E70A22EEE70B22ECE71A46EAE747
:102560000D22E8E70E22E6E70F22E4E72F498B0968
:1025700013E30269002A55D0012A26D0022A52D13B
:1025800006687EB3012E22D00E46C06860B30128D3
:102590002ED002282ED003282ED004282ED0052895
:1025A0002ED006282ED007282ED008282ED0092875
:1025B0002ED00A282ED00B282ED00C282ED00D2855
:1025C0002ED00E2811D110210FE041682BE0866833
:1025D0000EB94668D9E7012E01D00E46D5E7466808
:1025E0007608D2E7124ED0E7114606FB01F11AE059
:1025F0000321FAE70421F8E70521F6E70621F4E7CD
:102600000721F2E70821F0E70921EEE70A21ECE7CC
:102610000B21EAE70C21E8E71946E6E70E21E4E79B
:102620000F21E2E70149CB09B7E200BF00127A00AF
:1026300000093D000269002A55D0012A26D0022A4D
:1026400052D106687EB3012E22D00E46C06860B318
:1026500001282ED002282ED003282ED004282ED0D8
:1026600005282ED006282ED007282ED008282ED0B8
:1026700009282ED00A282ED00B282ED00C282ED098
:102680000D282ED00E2811D110210FE041682BE02B
:1026900086680EB94668D9E7012E01D00E46D5E707
:1026A00046687608D2E7904ED0E7114606FB01F166
:1026B0001AE00321FAE70421F8E70521F6E70621ED
:1026C000F4E70721F2E70821F0E70921EEE70A2104
:1026D000ECE70B21EAE70C21E8E70D21E6E71946D4
:1026E000E4E70F21E2E781490B0A56E203694BB1A7
:1026F000012B05D0022B06D1FEF7ACFF014602E00C
:10270000416800E079494B0A47E2784B45E20429E9
:102710000AD0052900F06082062900F04A840729C2
:1027200000F04B84002338E24369002B5AD1026940
:10273000002A00F03082012A27D0022A40F02C82A1
:1027400006687EB3012E22D01E46C06878B30128E9
:102750002CD002282ED003282ED004282ED00528D5
:102760002ED006282ED007282ED008282ED00928B3
:102770002ED00A282ED00B282ED00C282ED00D2893
:102780002ED00E2810D01A4611E0436804E2866865
:102790000EB94668D9E7012E01D01E46D5E7466836
:1027A0007608D2E7504ED0E7102200E0032206FB65
:1027B00002F3F1E10A46FAE70522F8E70622F6E716
:1027C0000722F4E70822F2E70922F0E70A22EEE7FF
:1027D0000B22ECE70C22EAE70D22E8E70E22E6E7FF
:1027E0000F22E4E7082B15D0092B71D00A2B00F03B
:1027F000D2800B2B00F02D810C2B00F088810D2B4B
:1028000000F096810E2B00F0A4810F2B00F0B28116
:102810000023C1E10269002A57D0012A03D0022A0D
:1028200003D0002352E0436850E006686EB3012EE7
:1028300020D00026C06868B301282AD002282CD0F6
:1028400003282CD004282CD005282CD006282CD0E6
:1028500007282CD008282CD009282CD00A282CD0C6
:102860000B282CD00C282CD00D282CD00E280ED0C4
:1028700000220FE086680EB94668DBE7012E01D022
:102880000026D7E746687608D4E7174ED2E710222D
:1028900000E0032206FB02F318E00A46FAE70522ED
:1028A000F8E70622F6E70722F4E71A46F2E70922DC
:1028B000F0E70A22EEE70B22ECE70C22EAE70D2212
:1028C000E8E70E22E6E70F22E4E7084B5B0863E146
:1028D0000269002A5CD0012A03D0022A08D0002312
:1028E00057E0436855E000BF00093D0000127A0040
:1028F00006686EB3012E20D00026C06868B3012898
:102900002AD002282CD003282CD004282CD005282B
:102910002CD006282CD007282CD008282CD0092809
:102920002CD00A282CD00B282CD00C282CD00D28E9
:102930002CD00E280ED000220FE086680EB9466813
:10294000DBE7012E01D00026D7E746687608D4E7FA
:102950009E4ED2E7102200E0032206FB02F318E0AD
:102960000A46FAE70522F8E70622F6E70722F4E727
:102970000822F2E71A46F0E70A22EEE70B22ECE71C
:102980000C22EAE70D22E8E70E22E6E70F22E4E751
:102990008F4B9B0800E10269002A57D0012A03D01F
:1029A000022A03D0002352E0436850E006686EB369
:1029B000012E20D00026C06868B301282AD0022842
:1029C0002CD003282CD004282CD005282CD0062865
:1029D0002CD007282CD008282CD009282CD00A2845
:1029E0002CD00B282CD00C282CD00D282CD00E2825
:1029F0000ED000220FE086680EB94668DBE7012E94
:102A000001D00026D7E746687608D4E76F4ED2E7B4
:102A1000102200E0032206FB02F318E00A46FAE760
:102A20000522F8E70622F6E70722F4E70822F2E794
:102A30000922F0E71A46EEE70B22ECE70C22EAE760
:102A40000D22E8E70E22E6E70F22E4E7604BDB0801
:102A5000A2E00269002A57D0012A03D0022A03D03B
:102A6000002352E0436850E006686EB3012E20D088
:102A70000026C06868B301282AD002282CD0032879
:102A80002CD004282CD005282CD006282CD00728A0
:102A90002CD008282CD009282CD00A282CD00B2880
:102AA0002CD00C282CD00D282CD00E280ED0002293
:102AB0000FE086680EB94668DBE7012E01D00026DC
:102AC000D7E746687608D4E7404ED2E7102200E008
:102AD000032206FB02F318E00A46FAE70522F8E7AC
:102AE0000622F6E70722F4E70822F2E70922F0E7D8
:102AF0000A22EEE71A46ECE70C22EAE70D22E8E7A5
:102B00000E22E6E70F22E4E7314B1B0944E003699C
:102B10005BB1012B03D0022B03D0002306E04368F6
:102B200004E0FEF797FD034600E0294B9B0933E0E4
:102B300003695BB1012B03D0022B03D0002306E015
:102B4000436804E0FEF786FD034600E0204BDB0906
:102B500022E003695BB1012B03D0022B03D00023D9
:102B600006E0436804E0FEF775FD034600E0184BFD
:102B70001B0A11E003695BB1012B03D0022B03D0C8
:102B8000002306E0436804E0FEF764FD034600E02E
:102B90000F4B5B0A00E00E4B5B08246803EB8303DA
:102BA00003EB8303A800B3FBF0F00A49A1FB00325A
:102BB0005209642302FB13031B013233A1FB0313ED
:102BC000C3F3431343EA0213A36070BD00093D0041
:102BD00000127A001F85EB514369002B5AD102691C
:102BE000002A00F0E381012A27D0022A40F0DF8189
:102BF00006687EB3012E22D01E46C06878B3012835
:102C00002CD002282ED003282ED004282ED0052820
:102C10002ED006282ED007282ED008282ED00928FE
:102C20002ED00A282ED00B282ED00C282ED00D28DE
:102C30002ED00E2810D01A4611E04368B7E18668FE
:102C40000EB94668D9E7012E01D01E46D5E7466881
:102C50007608D2E79F4ED0E7102200E0032206FB61
:102C600002F3A4E10422FAE70A46F8E70622F6E7AF
:102C70000722F4E70822F2E70922F0E70A22EEE74A
:102C80000B22ECE70C22EAE70D22E8E70E22E6E74A
:102C90000F22E4E7082B15D0092B71D00A2B00F086
:102CA000CD800B2B00F02D810C2B00F03B810D2BE8
:102CB00000F049810E2B00F057810F2B00F0658149
:102CC000002374E10269002A57D0012A03D0022AA6
:102CD00003D0002352E0436850E006686EB3012E33
:102CE00020D00026C06868B301282AD002282CD042
:102CF00003282CD004282CD005282CD006282CD032
:102D000007282CD008282CD009282CD00A282CD011
:102D10000B282CD00C282CD00D282CD00E280ED00F
:102D200000220FE086680EB94668DBE7012E01D06D
:102D30000026D7E746687608D4E7664ED2E7102229
:102D400000E0032206FB02F318E00422FAE70A4639
:102D5000F8E70622F6E70722F4E71A46F2E7092227
:102D6000F0E70A22EEE70B22ECE70C22EAE70D225D
:102D7000E8E70E22E6E70F22E4E7574B5B0816E18F
:102D80000269002A57D0012A03D0022A03D0002367
:102D900052E0436850E006686EB3012E20D0002652
:102DA000C06868B301282AD002282CD003282CD070
:102DB00004282CD005282CD006282CD007282CD06D
:102DC00008282CD009282CD00A282CD00B282CD04D
:102DD0000C282CD00D282CD00E280ED000220FE06D
:102DE00086680EB94668DBE7012E01D00026D7E7DA
:102DF00046687608D4E7374ED2E7102200E0032277
:102E000006FB02F318E00422FAE70A46F8E7062276
:102E1000F6E70722F4E70822F2E71A46F0E70A226B
:102E2000EEE70B22ECE70C22EAE70D22E8E70E22A0
:102E3000E6E70F22E4E7284B9B08B8E00269002A86
:102E40005CD0012A03D0022A03D0002357E0436854
:102E500055E006686EB3012E20D00026C06868B326
:102E600001282AD002282CD003282CD004282CD0CA
:102E700005282CD0062831D0072831D0082831D099
:102E8000092831D00A2831D00B2831D00C2831D074
:102E90000D2831D00E280ED000220FE086680EB922
:102EA0004668DBE7012E01D00026D7E746687608A2
:102EB000D4E7084ED2E7102200E0032206FB02F31B
:102EC0001DE00422FAE70A46F8E70622F6E70722A1
:102ED000F4E700BF00093D0000127A000822EDE788
:102EE0000922EBE71A46E9E70B22E7E70C22E5E7C0
:102EF0000D22E3E70E22E1E70F22DFE7314BDB088B
:102F000055E003695BB1012B03D0022B03D00023F2
:102F100006E0436804E0FEF79DFB034600E0294B12
:102F20001B0944E003695BB1012B03D0022B03D0E2
:102F3000002306E0436804E0FEF78CFB034600E054
:102F4000204B9B0933E003695BB1012B03D0022BBB
:102F500003D0002306E0436804E0FEF77BFB034652
:102F600000E0184BDB0922E003695BB1012B03D0C1
:102F7000022B03D0002306E0436804E0FEF76AFB5F
:102F8000034600E00F4B1B0A11E003695BB1012B04
:102F900003D0022B03D0002306E0436804E0FEF7D1
:102FA00059FB034600E0074B5B0A00E0054B9B081A
:102FB000F3E5FEF7A3FBC308EFE5FEF79FFB03096C
:102FC000EBE500BF00127A00F0B583B03F4AD2F8BB
:102FD0001031596821F0E0615960596841F0C061D1
:102FE0005960D2F8181192F81C310A681268072B40
:102FF00000D9043203F0070399008F1C344B00E022
:1030000004333448834205D018780228F8D1587820
:103010000028F5D12F48834254D09878DD78146881
:10302000032303FA01F6BB40334324EA030313608E
:10303000146800FA01F305FA07F10B432343136008
:10304000224C4FF4613104F59070FFF73DF84CF6D7
:10305000203340F6B2421946184600F02FFFD4F84C
:103060002821536843F4807353601B4B4CF61F3286
:103070005A601A4AF02182F8231000229A6007222F
:103080001A6004F5A07604F588750523009304F50D
:10309000987304F59C7231462846FDF7B9FB04F598
:1030A000A47231462846FDF733FC04F586740C49BA
:1030B0002046FEF7C9FF01F079FB0A492046FEF7DA
:1030C000C3FFFEE7A0F12003A7E700BF14280020FC
:1030D000387D0008587D000810E000E000ED00E0B9
:1030E000EC7B0008107C000810B5044608462160FF
:1030F000024904F095FC204610BD00BFF907000806
:10310000F0B585B0436803EB4303C54A12F81310CA
:10311000037B63B9002900F0B680012900F0F58037
:1031200090F91630282B40F0F48000237BE10468EE
:103130000289857AC67A40F2FA5303FB02F303F55B
:1031400000431A141F0CB3F1FF7F35D2FE2F2AD88B
:103150005FFA82FE4FF0000CFF22EF43FFB205FB47
:10316000022207EB222206FB02231B0203F47F0349
:1031700005FB0EE207EB222206FB022202F47F424D
:10318000134305FB0CC207EB222706FB077743EA34
:1031900017231A0A8DF800201A0C8DF801208DF8DB
:1031A0000230002668E0D2B2C2F1FE02D2B24FF085
:1031B000000C4FF0FF0ED0E7B7F57F7F13D2B7F5C5
:1031C0003F7F07D8D2B202325FFA82FC4FF0FF0E87
:1031D0000022C2E7D2B2C2F1FC025FFA82FE4FF0D7
:1031E000FF0C0022B9E740F2F9539F4214D840F295
:1031F000FA439F4207D8D2B20432D2B24FF0FF0C4A
:103200004FF0000EA9E7D2B2C2F1FA025FFA82FCD7
:103210004FF0000EFF22A0E74FF0000CE646FF2221
:103220009BE74FF0070C19E023441D7905F0F005EA
:1032300045EA0C051D71013A002A1CDB1746C2F154
:1032400007035B0803EB860304AD354415F8105CF7
:10325000154115F0010FE4D04FF0010C17F00107F4
:10326000E2D0002FE7D023441D7905F00F0545EA91
:103270000C151D71DFE70136022E01D80722DBE7AE
:103280000023037346E7437D002B42D0012532E043
:103290004FF0070C1CE03B441A7902F0F00242EABE
:1032A0000C021A71013900291FDB05EB4503A2004E
:1032B00002EB83030A46C1F1070C03EB5C0316F82B
:1032C00004C04CFA01FC1CF0010FE1D04FF0010CDE
:1032D00012F00102DFD0002AE4D03B441A7902F058
:1032E0000F0242EA0C121A71DCE70134022C01D8F9
:1032F0000721D8E70135122D04D8064656F8127B6F
:103300000024F3E70023437503E090F91630282BDF
:1033100001D005B0F0BD037ED3B3012631E04FF0FC
:10332000070E1BE063441A7902F0F00242EA0E0233
:103330001A71013C002C1EDB06EB4603AA0002EBCF
:1033400083032246C4F1070E03EB5E0317F805E082
:103350004EFA04FE1EF0010FE1D08E4612F001027B
:10336000E0D0002AE5D063441A7902F00F0242EA65
:103370000E121A71DDE70135022D01D80724D9E7B5
:103380000136122E46D8074657F812CB0025F3E730
:10339000012634E04FF0070C1EE03B441A7902F09E
:1033A000F00242EA0C021A71013D002D21DB06EB0E
:1033B0004603A20002EB83032A46C5F1070C03EB88
:1033C0005C030DF1100CA4441CF80CCC4CFA05FC69
:1033D0001CF0010FDED08C4612F00102DDD0002A75
:1033E000E2D03B441A7902F00F0242EA0C121A7141
:1033F000DAE70134022C01D80725D6E70136122E70
:1034000008D8076800248DF804408DF805408DF831
:103410000640EFE7037E83F00103037679E700BF00
:10342000047D00080B46082B00F2FE80591CC2697F
:10343000147A84B903F10A04126890F8205032F823
:10344000152042FA03F313F0010F70D0054655F82A
:1034500012CB002730E0C3F11204EDE74FF0070E66
:103460001CE063441A7902F0F00242EA0E021A717B
:10347000013E002E1FDB01EB4103BA0002EB830388
:103480003246C6F1070E03EB5E0315F807E04EFA6D
:1034900006FE1EF0010FE1D04FF0010E12F0010206
:1034A000DFD0002AE4D063441A7902F00F0242EA26
:1034B0000E121A71DCE70137022F01D80726D8E770
:1034C000D0F800C000272DE04FF0070E1CE0634449
:1034D0001A7902F0F00242EA0E021A71013E002E41
:1034E0001FDB04EB4403BA0002EB83033246C6F150
:1034F000070E03EB5E0315F807E04EFA06FE1EF01A
:10350000010FE1D04FF0010E12F00102DFD0002ACE
:10351000E4D063441A7902F00F0242EA0E121A71E3
:10352000DCE70137022F3FF67DAF0726D7E70768B4
:1035300000258DF80C508DF80D508DF80E5030E0B0
:103540004FF0070C1FE03B441A7902F0F00242EA08
:103550000C021A71013E002E22DB01EB4103AA008E
:1035600002EB83033246C6F1070C03EB5C030DF15B
:10357000100CAC441CF804CC4CFA06FC1CF0010FF7
:10358000DED04FF0010C12F00102DCD0002AE1D0B5
:103590003B441A7902F00F0242EA0C121A71D9E781
:1035A0000135022D01D80726D5E7076800258DF8DB
:1035B00008508DF809508DF80A5030E04FF0070C94
:1035C0001FE03B441A7902F0F00242EA0C021A7141
:1035D000013E002E22DB04EB4403AA0002EB83032E
:1035E0003246C6F1070C03EB5C030DF1100CAC4442
:1035F0001CF808CC4CFA06FC1CF0010FDED04FF092
:10360000010C12F00102DCD0002AE1D03B441A790F
:1036100002F00F0242EA0C121A71D9E70135022DAD
:103620003FF600AF0726D4E790F820300133DBB235
:1036300080F82030C26952689342FFF46AAE0023DA
:1036400080F8203065E600BF70B582B0044603699B
:1036500013F0020F30D008461546236A13F0020F0C
:103660002ED000260096334603220221806802F005
:1036700015F86B68013303F007036B60144A03EB22
:10368000430102EB410149882981012129736975B0
:1036900003EB430302EB43031B7903EB43030D4AA4
:1036A00002EB8303EB6185F820602846FFF728FDD5
:1036B000236A83F0020323620023236102B070BDFA
:1036C0000023009303220121806801F0E7FFEFE768
:1036D000047D0008947C000808B5044A02F5A8712E
:1036E0004FF08040FFF7B0FF08BD00BF1428002056
:1036F00030B483681A681B7912681268072B00D9E6
:10370000043203F007039B009D1C1468032101FA97
:1037100003F3A9400B4324EA030313601368012158
:10372000A9400B431360C3681A681B7912681268BA
:10373000072B00D9043203F007039B009D1C14687B
:10374000032101FA03F3A9400B4324EA03031360A6
:1037500013680121A9400B43136003691A681B79A0
:1037600012681268072B00D9043203F007039B008C
:103770009D1C1468032101FA03F3A9400B4324EABA
:103780000303136013680121A9400B4313604369CD
:103790001A681B7912681268072B00D9043203F0EB
:1037A00007039B009D1C1468032101FA03F3A94041
:1037B0000B4324EA0303136013680121A9400B4360
:1037C000136043681A68936923F48053936130BC93
:1037D000704770472DE9F84F05460E46012807D07F
:1037E00025B94FF6FF739E4200F0FE81BDE8F88FC9
:1037F0004FF6FF739942F3D1AA4CAB4AC4F8682143
:10380000AA4BC4F8403104F5B477C4F84471D368C6
:1038100023F4E0639BB2A6491943D160A54BC4F8D9
:103820006C3104F5887804F5B673A34AA349404681
:10383000FEF7DAFAA24BC4F82831C4F82C71D4F898
:103840001031DA6942F08052DA619E4AC4F8702180
:10385000C4F874819A6942F004029A619A4AC4F8E1
:103860007821C4F87C819A6942F008029A61974AEB
:10387000C4F88021C4F884819A6942F010029A61E8
:10388000934FC4F81871082184F81C11B94659F8EF
:10389000040B002302220068FDF788FEC4F888911B
:1038A0000D2184F88C117868002301220068FDF74F
:1038B0007DFEC4F89071092184F8941138680023C2
:1038C00002220068FDF772FEC4F898710A2184F89C
:1038D0009C113868002302220068FDF767FE7D4BCB
:1038E000C4F82031C4F82481D4F810118A6942F454
:1038F00080428A61DA6842F00C02DA605A6922F486
:1039000040725A61DA6822F4B052DA60DA68DA603A
:103910001A6922F440521A611A691A61DA6842F48B
:103920000052DA60D4F81401C369002B40F08A8099
:10393000FDF7E4FE5B4CD4F82021192303FB00F3D0
:103940004FF41641B3FBF1F16420B1FBF0F727F01F
:10395000704300FB13131B013233B3FBF0F303F08E
:103960000F0343EA0713936004F5907104F5867022
:10397000FFF7BAFB564FC4F8A071052184F8A411D3
:103980003868002302220068FDF710FEC4F8A87111
:10399000042184F8AC113868002302220068FDF786
:1039A00005FEC4F8B071072184F8B411386800230B
:1039B00002220068FDF7FAFDC4F8B871062184F808
:1039C000BC113868002302220068FDF7EFFD424B6E
:1039D000C4F8C03104F58872C4F8C42104F5D0726B
:1039E000C4F8C82104F5D472C4F8CC2104F5D87207
:1039F000C4F8D02104F5DC72C4F8D421D4F8101135
:103A00008A6942F480528A611A6822F038021A6088
:103A10001A6842F018021A601A6842F441721A6079
:103A2000DA6922F40062DA611A6842F040021A6030
:103A30001C4BD3F8C021936803F08303022B1BD0E7
:103A4000D368F5E7042B07D0052B09D0062B0BD044
:103A5000072B0DD000206DE7FDF750FE400869E709
:103A6000FDF74CFE800865E7FDF748FEC00861E7FA
:103A7000FDF744FE00095DE70A4A02F5E073C2F86B
:103A8000D831002382F8DC3182F8DD3102F5EC71A7
:103A90005162E32B22D8034A1A44FF2482F82840BB
:103AA0000133F6E71428002000ED00E000E100E01B
:103AB0000003FA0500200240947B00080010024039
:103AC0000070004000080140000C0140001001405F
:103AD000002800200038014000300140984C04F1DB
:103AE000240AC4F800A0002767602781FF23A3727F
:103AF0002022E2724FF0010884F80C80E7812374E1
:103B000040236374A774E374277584F81580A77540
:103B100084F81780277684F8207084F8217084F860
:103B200022702046FFF7ECFADFF8389209F1080B13
:103B3000C4F838B1062184F83C11D9F808003B4696
:103B40003A460068FDF732FDC4F830B1072184F829
:103B50003411D9F808003B463A460068FDF726FDC7
:103B6000C4F8489184F84C71D9F8000043463A46AD
:103B700039460068FDF71AFD3B464246714904F597
:103B8000F07003F0A9FB4FF4FA73C4F8EC316E4BFC
:103B9000C4F8E03104F5C473C4F8F0313B460422A4
:103BA0006A4904F5A87003F097FB694BC4F85031DB
:103BB00004F59473C4F85C31C4F860A1032384F85D
:103BC00064313B460222634904F5FC7003F084FB38
:103BD000614BC4F8F8311923C4F804325F4BC4F8C0
:103BE0000832C4F80C72FBE5554C5B4BC4F8F83155
:103BF00004F5FC7003F08AFB554BC4F8503104F512
:103C0000A87003F083FB564BC4F8E03104F5F07064
:103C100003F07CFBD4F84831186800231A4694F866
:103C20004C110068FDF7C2FCD4F83031186800234D
:103C30001A4694F834110068FDF7B8FCD4F838310E
:103C4000186800231A4694F83C110068FDF7AEFC92
:103C500004F5E070FFF74CFDD4F8B8311868002384
:103C60001A4694F8BC110068FDF7A0FCD4F8B031F6
:103C7000186800231A4694F8B4110068FDF796FC02
:103C8000D4F8A831186800231A4694F8AC110068DB
:103C9000FDF78CFCD4F8A031186800231A4694F87C
:103CA000A4110068FDF782FCD4F82021D36823F426
:103CB0000053D360D4F824311A68936923F4804305
:103CC0009361D4F89831186800231A4694F89C112F
:103CD0000068FDF76BFCD4F89031186800231A4691
:103CE00094F894110068FDF761FCD4F888311868E5
:103CF00000231A4694F88C110068FDF757FCD4F89D
:103D00001831186800231A4694F81C110068FDF752
:103D10004DFCD4F884311A68936923F01003936141
:103D2000D4F87C311A68936923F008039361D4F8BE
:103D300074311A68936923F00403936156E500BF58
:103D400014280020207C0008707C0008287C0008D3
:103D5000887C0008347C00085C7C0008B90C0008F2
:103D6000447C00080028002008B54FF6FF710120B0
:103D7000FFF730FD08BD08B54FF6FF710020FFF7D3
:103D800029FD08BDFEE70078B0FA80F040097047D1
:103D9000012303707047FEE7FEE74FF0100383F343
:103DA0001188BFF36F8FBFF34F8FFEE74FF0100303
:103DB00083F31188BFF36F8FBFF34F8FFEE7704718
:103DC0007047000008B50A4606490748FEF73CF967
:103DD0004FF0100383F31188BFF36F8FBFF34F8F42
:103DE000FEE700BF587D000820290020F0B42F4BCB
:103DF0001C6814F0010404D01A461B6823F0010368
:103E000013602A490D684E688F68294B1B68294A40
:103E1000A2FB03C39B09A2FB00C29209D1F800C018
:103E20002CF0020CC1F800C0D1F800C04CF0040C1A
:103E3000C1F800C04B608B600B6843F001030B605E
:103E400000E0013A2AB1194B1B6813F4803FFAD005
:103E5000F7E7164B1A6822F001021A60144A11683B
:103E6000154AA2FB0121890C00F480605960996019
:103E7000196841F00101196000E0013828B10B4BCD
:103E80001B6813F4803FFAD0F7E7084B1A6822F05A
:103E900001021A609F605E601D6024B11A461B68B3
:103EA00043F0010313600020F0BC704710E000E015
:103EB000B47B0008D34D621083DE1B432DE9F04F25
:103EC00083B083468A46914698463A4C3A49204602
:103ED000FEF7BAF839492046FEF7B6F8384D2946BC
:103EE0002046FEF7B1F8374A37492046FEF7ACF8CE
:103EF000364A37492046FEF7A7F8364A3649204663
:103F0000FEF7A2F829462046FEF79EF8334B344AC6
:103F10003449891A0191991A009133492046FEF7D4
:103F200093F8324B324A991A009132492046FEF7F3
:103F30008BF8314B314E9A1B009232463049204665
:103F4000FEF782F82F4F304ABB1A00933B462F49A9
:103F50002046FEF779F8BB1B00933B4632462C49BE
:103F60002046FEF771F82B4B2B4A991A00912B49EA
:103F70002046FEF769F829462046FEF765F85A46BE
:103F800027492046FEF760F8524626492046FEF7AC
:103F90005BF84A4624492046FEF756F84246234934
:103FA0002046FEF751F829462046FEF74DF803B0AB
:103FB000BDE8F08F20290020787D0008B47D00083E
:103FC0001C7C000820020008CC7D000818020008B4
:103FD000E07D000800020008F47D000800040008ED
:103FE0000002000834020008107E0008947B0008DC
:103FF00000040008507E000810280020002800203F
:104000007C7E0008D42B002014280020A47E000809
:10401000CC7E00080004002000000020F47E000890
:104020001C7F0008347F00084C7F0008647F000874
:1040300000B583B003460091024A03490348FEF7E6
:1040400003F8FEE77C7F0008847F00082029002019
:1040500008B5FFF7EDFF000028B141690C4A914215
:104060000AD0002070474FF0100383F31188BFF38C
:104070006F8FBFF34F8FFEE7836A1432934202D0F3
:104080001BB100207047002070470120704700BF1F
:10409000242A002000230278A52A02D1013001330E
:1040A000F9E7C3F38F007047074B9B6A1B6823B97E
:1040B000054B4FF0FF32DA627047034B9A6AD268C1
:1040C000D2685268DA627047242A002010B504468C
:1040D000006B01F0D9FF204601F0D6FF10BD2DE99D
:1040E000F04780460D4617469946089EDDF824A005
:1040F0000A9C9200A521206B03F0FAFC236B07F1C8
:104100008042013A03EB820727F0070785B30022BC
:10411000092A07D8A95CA31883F83410AB5C0BB14B
:104120000132F5E7002384F83D30042E00D904263F
:10413000E662A6640025E564201D02F0A6F904F1FC
:10414000180002F0A2F92461C6F10506A6616462B6
:10415000256584F854504A464146384602F03EF8F8
:104160002060BAF1000F01D0CAF80040BDE8F08726
:10417000002384F83430D8E770B50024042C08D824
:1041800004EB840293001048184402F073F90134E0
:10419000F4E70E4C04F19406304602F06BF904F19A
:1041A000A805284602F066F904F1140002F062F94D
:1041B00004F1BC0002F05EF9204602F05BF9A66251
:1041C000C4F8D05070BD00BF542A0020242A00201B
:1041D00038B5044602F038F8264BD3F8D420013223
:1041E000C3F8D420D3F8D83073B1224BD3F8DC30E5
:1041F0008BB9204BD3F8D830DA6AE36A9A420AD8EE
:104200001C4BC3F8D84006E01A4BC3F8D840D3F88B
:10421000D430012B2BD0174DD5F8E0300133C5F841
:10422000E0302364E36A01229A40D5F8E4100A439F
:10423000C5F8E42005F1300003EB8303211D00EBFA
:10424000830002F025F902F021F8D5F8DC306BB1DB
:10425000D5F8D830DA6AE36A9A4207D2064B4FF0B3
:1042600080521A60BFF34F8FBFF36F8F38BDFFF7D7
:1042700083FFD0E7242A002004ED00E038B50F4B7F
:10428000D3F8E830C3B101F0DFFF0C4CD4F8C830EC
:10429000DD68281D02F020F9D4F8D430013BC4F8C1
:1042A000D430D4F8E830013BC4F8E83001F0EEFF38
:1042B0002846FFF70BFFE2E738BD00BF242A0020A5
:1042C00070B504460D461F4BD3F8EC60D3F8D80008
:1042D000043002F001F960B91A4BD3F8D820D16A42
:1042E000012202FA01F1D3F8E42022EA0102C3F824
:1042F000E420B4F1FF3F0FD03444124BD3F8D83050
:104300005C60A64211D90F4BD3F8D000D3F8D81077
:10431000043102F0C8F870BD002DEDD00948D0F886
:10432000D810043102F0B4F8F5E7064DA86AD5F8C4
:10433000D810043102F0B7F8EB6AA342EBD9EC6273
:10434000E9E700BF242A002008B509E0084B4FF038
:1043500080521A60BFF34F8FBFF36F8FFFF72FFDAF
:10436000FFF78CFF034B1B6B012BEFD8F6E700BF69
:1043700004ED00E0242A00202DE9F04385B0074633
:10438000884614461E46900001F002FEF0B18146B8
:10439000582001F0FDFD0546A0B1C0F83090D5B120
:1043A0000023039302950D9B01930C9B00933346CE
:1043B000224641463846FFF792FE2846FFF708FF9F
:1043C000012005E0484601F05FFEE8E74FF0FF30CE
:1043D00005B0BDE8F0834FF0FF30F9E770B5044653
:1043E00001F032FF002C3DD0261D304602F074F85B
:1043F00088B9E26A02EB82012D4B03EB81031B6B50
:104400004BB9012303FA02F22949D1F8E43023EA37
:104410000203C1F8E430A36A1BB104F1180002F0F2
:104420005BF8234BD3F8E0200132C3F8E020D3F847
:10443000D830A3421AD01E4AD2F8D430013BC2F879
:10444000D4302046FFF742FEFFF72EFE01F01EFF9C
:10445000174BD3F8DC3023B1154BD3F8D830A34237
:1044600010D070BD124BD3F8D840BDE7104D314687
:1044700005F1BC0002F00CF8D5F8E8300133C5F8BE
:10448000E830E3E70A4BD3F8F03043B14FF01003C4
:1044900083F31188BFF36F8FBFF34F8FFEE7054B98
:1044A0004FF080521A60BFF34F8FBFF36F8FD8E782
:1044B000242A002004ED00E0F8B5D8B105461D4BD4
:1044C000D3F8D83083422DD001F0BEFE6C69194B71
:1044D0009F6AD3F8D06001F0D9FEBC4224D0B44228
:1044E00024D0144B9C420ED0134B9C4220D0BCB124
:1044F000012018E04FF0100383F31188BFF36F8F92
:10450000BFF34F8FFEE7AB6A0BB102200BE095F8CB
:104510005430DBB2012B01D0032004E0022002E082
:10452000042000E00020F8BD0220FCE70220FAE7AA
:104530000420F8E7242A0020E02A002010B50446D1
:1045400001F082FE24B1E46A01F0A0FE204610BD15
:10455000014BD3F8D840F6E7242A002010B50446D2
:1045600001F05CFFEFF311834FF0100282F311882A
:10457000BFF36F8FBFF34F8F1CB1E06A83F31188D5
:1045800010BD024AD2F8D840F7E700BF242A002025
:10459000F8B5042908D94FF0100383F31188BFF34D
:1045A0006F8FBFF34F8FFEE704460D4601F04CFEC0
:1045B00084B1A36C9D4232D010D92F4AD2F8D820B2
:1045C000A2422FD02C4AD2F8D820D26AAA422BD9A4
:1045D000002609E0284BD3F8D840EAE7264AD2F86B
:1045E000D820A24222D00026E76ABB4220D0A56490
:1045F000A369002B02DBC5F10505A561616907EB25
:1046000087021E4B03EB8203994213D03EB11C4B31
:104610004FF080521A60BFF34F8FBFF36F8F01F0DE
:1046200035FEF8BD0026DFE70126DDE70126DBE7E2
:10463000E562DCE7251D284601F04EFF48B901235D
:1046400003FA07F70C4AD2F8E43023EA0703C2F86A
:10465000E430E06A01228240074BD3F8E4100A43B9
:10466000C3F8E420303300EB8000294603EB8000E0
:1046700001F00EFFCAE700BF242A0020542A0020C0
:1046800004ED00E078B170B504461E4BD3F8D83085
:10469000834207D001F0D8FD2046FFF7DDFC58B972
:1046A00001F0F4FD70BD4FF0100383F31188BFF3E8
:1046B0006F8FBFF34F8FFEE7261D304601F00CFFD2
:1046C000E36A01229A400F4DD5F8E4100A43C5F879
:1046D000E42005F1300003EB8303314600EB830057
:1046E00001F0D6FEE26AD5F8D830DB6A9A42D7D319
:1046F000054B4FF080521A60BFF34F8FBFF36F8F9F
:10470000CEE700BF242A002004ED00E0F8B5B0B3E6
:10471000044601F083FEEFF311874FF0100383F39B
:104720001188BFF36F8FBFF34F8F2046FFF794FCC4
:10473000054600B31B4BD3F8F0305BBBE26A194B64
:10474000D3F8D830DB6A9A4222D20025261D3046A3
:1047500001F0C2FEE06A01228240124BD3F8E4105D
:104760000A43C3F8E420303300EB8000314603EB0A
:10477000800001F08DFE87F311882846F8BD4FF0C8
:10478000100383F31188BFF36F8FBFF34F8FFEE7E2
:104790000125DBE704F11801034801F079FE00254B
:1047A000E9E700BF242A0020382A002000B583B0A2
:1047B0001A4B019300230093802219491948FFF7EF
:1047C000DBFD0346012807D0012B09D0B3F1FF3FE1
:1047D0001BD003B05DF804FB01F00CF90346F3E7CE
:1047E0004FF0100383F31188BFF36F8FBFF34F8F28
:1047F0000D4B4FF0FF32DA620122C3F8DC200022B9
:10480000C3F8EC2001F0B0FDE3E74FF0100383F3B1
:104810001188BFF36F8FBFF34F8FFEE7182B002077
:10482000947F000849430008242A002008B54FF06F
:10483000100383F31188BFF36F8FBFF34F8F034BC8
:104840000022C3F8DC2001F0EDFC08BD242A002082
:10485000034AD2F8F0300133C2F8F030704700BF9D
:10486000242A0020014BD3F8EC007047242A0020B2
:1048700008B501F0D3FD024BD3F8EC0008BD00BF32
:10488000242A0020014BD3F8D4007047242A0020AA
:10489000034618B133B103F134007047064BD3F827
:1048A000D830F7E74FF0100383F31188BFF36F8F11
:1048B000BFF34F8FFEE700BF242A00202DE9F0410F
:1048C000454BD3F8F030002B7AD1434BD3F8EC5062
:1048D0000135C3F8EC50CDB99B6A1B6843B14FF06A
:1048E000100383F31188BFF36F8FBFF34F8FFEE781
:1048F000394B9A6AD3F8D0109962C3F8D020D3F814
:10490000F8200132C3F8F820FFF7CEFB324BDB6A08
:10491000AB4248D90024304AD2F8D830DB6A03EBE6
:10492000830399000A44136B012B00D901242A4BFD
:10493000D3F8FC30002B40D0274BD3F80031002BAC
:1049400047D0012445E00124234B9B6A1B6863B3D5
:10495000214B9B6ADB68DE6873689D422AD306F1AF
:104960000408404601F0B8FDB36A1BB106F1180017
:1049700001F0B2FDF36A01229A40174FD7F8E41014
:104980000A43C7F8E42007F1300003EB83039A00E1
:104990004146104401F07CFDF26AD7F8D830DB6A5A
:1049A0009A42D0D2D0E70024CEE70B4B4FF0FF3233
:1049B000DA62B0E7084AD362ADE7FFF701FABBE776
:1049C000054AD2F8FC300133C2F8FC30FFF7F8F9A1
:1049D00000242046BDE8F081242A0020394BD3F87A
:1049E000F03043B94FF0100383F31188BFF36F8F9A
:1049F000BFF34F8FFEE770B501F026FC314BD3F8C3
:104A0000F020013AC3F8F020D3F8F030002B54D155
:104A10002C4BD3F8D4300BB900244FE00024294BA1
:104A20005B692BB3274D2B6ADC6804F1180001F099
:104A300053FD261D304601F04FFDE36A01229A40E6
:104A4000D5F8E4100A43C5F8E42005F1300003EB83
:104A50008303314600EB830001F01AFDE26AD5F8CA
:104A6000D830DB6A9A42DAD30122C5F80021D6E7B2
:104A70000CB1FFF719FB134BD3F8FC407CB9114B79
:104A8000D3F80041D4B1104B4FF080521A60BFF3FD
:104A90004F8FBFF36F8F012410E0013C08D0FFF768
:104AA0000DFF0028F9D0074B0122C3F80021F4E7DD
:104AB000044B0022C3F8FC20E1E7002401F0E6FBF0
:104AC000204670BD242A002004ED00E038B558B11E
:104AD0000C46054689B94FF0100383F31188BFF3E4
:104AE0006F8FBFF34F8FFEE74FF0100383F31188F2
:104AF000BFF36F8FBFF34F8FFEE71B4BD3F8F03040
:104B000043B14FF0100383F31188BFF36F8FBFF3EE
:104B10004F8FFEE7FFF79CFE134BD3F8EC002A689B
:104B20001444824209D9A24201D82C600EE0A0426E
:104B300001D32C600AE02C6004E0A24201D8A0421C
:104B400010D22C600021201AFFF7BAFBFFF746FFB6
:104B500038B9064B4FF080521A60BFF34F8FBFF346
:104B60006F8F38BD2C60F1E7242A002004ED00E0AF
:104B700010B5B0B104460F4BD3F8F03043B14FF04D
:104B8000100383F31188BFF36F8FBFF34F8FFEE7DE
:104B9000FFF75EFE00212046FFF792FBFFF71EFFA6
:104BA00038B9054B4FF080521A60BFF34F8FBFF3F7
:104BB0006F8F10BD242A002004ED00E00C4BD3F8C9
:104BC000F03043B14FF0100383F31188BFF36F8FC0
:104BD000BFF34F8FFEE710B50446FFF739FE044AD6
:104BE000D2F8FC302344C2F8FC30FFF7F7FE10BDCA
:104BF000242A0020304BD3F8F03023B12E4B012271
:104C0000C3F80021704710B52B4B0022C3F80021D8
:104C1000D3F8D8301B6B1A68B2F1A53F03D15A689C
:104C2000B2F1A53F1ED0244BD3F8D800D3F8D8104A
:104C30003431FFF7C7F8204AD2F8E430B3FA83F3EF
:104C4000DBB2C3F11F0303EB830081000A44126B44
:104C50008AB94FF0100383F31188BFF36F8FBFF34E
:104C60004F8FFEE79A68B2F1A53FDCD1DB68B3F164
:104C7000A53FD8D1DFE7104A03EB83008100114440
:104C8000486B40684863303203EB8304A1000C4654
:104C900008310A44904209D0074903EB83039A0084
:104CA0000A44536BDB68C1F8D83010BD4068024A33
:104CB00022445063F0E700BF242A002038B50446A0
:104CC00001F0C2FA8CB3251D284601F005FC88B915
:104CD000E26A02EB8201304B03EB81031B6B4BB9A1
:104CE000012303FA02F22C49D1F8E43023EA02034B
:104CF000C1F8E430A36A1BB104F1180001F0ECFB29
:104D00002946254801F0C4FB94F85430DBB2012B4E
:104D10000FD001F0BBFA204BD3F8DC306BB91E4B3F
:104D2000D3F8D830A3420FD038BD1B4BD3F8D840AE
:104D3000C9E7002384F85430EBE701F085FAFFF768
:104D4000B3F901F0A3FAEAE7134BD3F8DC30ABB1C7
:104D5000114BD3F8F03043B14FF0100383F31188B7
:104D6000BFF36F8FBFF34F8FFEE70C4B4FF08052B6
:104D70001A60BFF34F8FBFF36F8FD5E7064B1A68EA
:104D8000D3F8D4309A4204D1034B0022C3F8D82080
:104D9000CAE7FFF72FFFC7E7242A002004ED00E051
:104DA00060B110B50C460A4BD3F8D810183101F099
:104DB0007AFB01212046FFF783FA10BD4FF0100364
:104DC00083F31188BFF36F8FBFF34F8FFEE700BFF0
:104DD000242A002038B570B10B461446124AD2F886
:104DE000F0208AB94FF0100383F31188BFF36F8F5F
:104DF000BFF34F8FFEE74FF0100383F31188BFF32B
:104E00006F8FBFF34F8FFEE7074AD2F8D81043F0F9
:104E100000438B61D2F8D810183101F039FB012121
:104E20002046FFF74DFA38BD242A002038B578B166
:104E30000C4615460B4BD3F8D810183101F028FB5F
:104E40000DB14FF0FF3429462046FFF739FA38BD3F
:104E50004FF0100383F31188BFF36F8FBFF34F8FB1
:104E6000FEE700BF242A002038B5C368DC684CB3D5
:104E700004F11805284601F02FFB1A4BD3F8F03047
:104E80004BBB251D284601F027FBE06A012282402A
:104E9000144BD3F8E4100A43C3F8E420303300EB9A
:104EA0008000294603EB800001F0F2FAE26A0D4B24
:104EB000D3F8D830DB6A9A4212D90120094BC3F8E3
:104EC00000010EE04FF0100383F31188BFF36F8FE2
:104ED000BFF34F8FFEE72946034801F0D9FAE5E713
:104EE000002038BD242A0020382A00201E4AD2F88B
:104EF000F02042B94FF0100383F31188BFF36F8F96
:104F0000BFF34F8FFEE770B541F000430360C56803
:104F10000DB301F0E1FA2E1D304601F0DDFAEB6A27
:104F200001229A40104CD4F8E4100A43C4F8E4205B
:104F300004F1300003EB8303314600EB830001F002
:104F4000A7FAEA6AD4F8D830DB6A9A4202D9012279
:104F5000C4F8002170BD4FF0100383F31188BFF334
:104F60006F8FBFF34F8FFEE7242A002068B110B582
:104F7000044601F069F9094BD3F8F8202260D3F810
:104F8000EC30636001F082F910BD4FF0100383F341
:104F90001188BFF36F8FBFF34F8FFEE7242A0020E5
:104FA000034BD3F8F8200260D3F8EC30436070472D
:104FB000242A0020F8B5D8B10C46054609B301F003
:104FC00043F91C4BD3F8EC106B68C81A2268B2F195
:104FD000FF3F27D02F68174ED6F8F860B74201D0B0
:104FE0008B4224D9824215D80023236001241AE081
:104FF0004FF0100383F31188BFF36F8FBFF34F8F10
:10500000FEE74FF0100383F31188BFF36F8FBFF3F8
:105010004F8FFEE75B1A134423602846FFF7C0FF5B
:10502000002400E0002401F031F92046F8BD0124FD
:10503000F9E700BF242A0020024B0122C3F8002117
:10504000704700BF242A002008B1406C7047002040
:10505000704700B14164704770B50C46164605466E
:10506000D8B1256005F134026260EA6A22612A6BD8
:10507000E2612A6CA260AA6C62610022A261052B27
:105080001BD0134AD2F8D820AA420AD02373032B8C
:105090000AD0BEB90023238470BD0D4AD2F8D8507F
:1050A000DFE700232373F4E7FFF7D2FBAB6A0BB112
:1050B00002232373FFF792FCEBE72846FFF7FCF986
:1050C0002073E6E7286BFEF7E5FF2084E4E700BFE6
:1050D000242A00202DE9F0470C683CB307460D4612
:1050E00090464B685B684B6001F108094B4504D062
:1050F0006B68D3F80CA0002412E05B684B60F7E704
:105100005B686B606B68DE6804EBC4014346012298
:1051100007EB81013046FFF79FFF0134B24505D010
:105120006B685B686B609945ECD1E9E72046BDE8A8
:10513000F0870000F8B506460C461746FFF788FBD7
:10514000234BD3F8D430A3423CD805250024013D9D
:1051500004EBC40005EB850101221E4B03EB81012A
:1051600006EB8000FFF7B6FF0444002DEFD104EBFF
:10517000C400174DA96A022206EB8000FFF7AAFFC0
:10518000044404EBC400D5F8D010022206EB8000E2
:10519000FFF7A0FF044404EBC400042205F1BC01A6
:1051A00006EB8000FFF796FF044404EBC4000322E3
:1051B000294606EB8000FFF78DFF04441FB1002352
:1051C0003B6000E00024FFF709FC2046F8BD00BF6B
:1051D000242A0020542A0020014BD3F8D80070471D
:1051E000242A0020064BD3F8DC303BB1044BD3F823
:1051F000F0300BB10020704702207047012070474B
:10520000242A0020002851D038B50446C36A294A10
:10521000D2F8D820D26A93423FD28269002A06DBB4
:10522000244AD2F8D820D26AC2F1050282616169AB
:1052300003EB8303204A02EB8303994206D01D4B04
:10524000D3F8D830DB6AE362012038BD251D28463B
:1052500001F042F950B9E26A012303FA02F215495A
:10526000D1F8E43023EA0203C1F8E4301148D0F861
:10527000D830DB6AE362012404FA03F2D0F8E410C8
:105280000A43C0F8E420303003EB8303294600EBE7
:10529000830001F0FDF82046D7E7826C054BD3F878
:1052A000D830DB6A9A4203D30020CEE70020704753
:1052B0000120CAE7242A0020542A0020002852D0C6
:1052C00038B504462A4BD3F8D830834208D04FF083
:1052D000100383F31188BFF36F8FBFF34F8FFEE787
:1052E000C36C43B94FF0100383F31188BFF36F8F82
:1052F000BFF34F8FFEE7013BC364C16A826C9142EA
:1053000033D00BB1002038BD051D284601F0E4F86C
:1053100088B9E26A02EB8201154B03EB81031B6B38
:105320004BB9012303FA02F21149D1F8E43023EA20
:105330000203C1F8E430A36CE362C3F10502A26189
:10534000012404FA03F10A4AD2F8E4000143C2F846
:10535000E410303203EB8303294602EB830001F0B3
:1053600097F82046CFE7002070470020CBE700BF2A
:10537000242A0020002856D038B50A460446C16CBD
:1053800041B94FF0100383F31188BFF36F8FBFF360
:105390004F8FFEE7836C934200D21346E26A9A4233
:1053A00001D0012900D038BD1F49D1F8D810A14241
:1053B00030D0E362A169002902DBC3F10503A361D8
:1053C000616902EB8202194B03EB82029142EAD13E
:1053D000251D284601F080F850B9E26A012303FA3E
:1053E00002F21149D1F8E43023EA0203C1F8E430B3
:1053F000E06A012282400C4BD3F8E4100A43C3F860
:10540000E420303300EB8000294603EB800001F0FC
:105410003FF8C8E74FF0100383F31188BFF36F8F95
:10542000BFF34F8FFEE77047242A0020542A002044
:10543000064AD2F8D8309869D2F8D830DB6AD2F868
:10544000D820C3F105039361704700BF242A0020D0
:10545000064BD3F8D8302BB1044BD3F8D820D36CFB
:105460000133D364014BD3F8D8007047242A0020BD
:1054700038B505460C4600F0E7FE1C4BD3F8D83093
:105480001B6D33B9194BD3F8D830012283F854205F
:10549000C4B900F0FBFE00F0D7FE144BD3F8D830AF
:1054A0001C6D2CB1DDB1114BD3F8D83000221A6538
:1054B0000E4BD3F8D830002283F8542000F0E6FEDB
:1054C000204638BD11462046FEF7FAFE084B4FF045
:1054D00080521A60BFF34F8FBFF36F8FD9E7034B32
:1054E000D3F8D830621E1A65E2E700BF242A0020F4
:1054F00004ED00E0F8B506460F4614461D4600F0E0
:10550000A3FE244BD3F8D83093F85420D2B2022A09
:105510000CD0204BD3F8D820106D20EA0606166573
:10552000D3F8D830012283F85420E5B900F0AEFE5C
:1055300000F08AFE24B1174BD3F8D8301B6D2360DE
:10554000144BD3F8D83093F85430DBB2022B17D079
:105550000024104BD3F8D830002283F8542000F0F8
:1055600095FE2046F8BD11462846FEF7A9FE0A4BD7
:105570004FF080521A60BFF34F8FBFF36F8FD5E7A4
:10558000044BD3F8D830196D21EA07071F650124B1
:10559000DFE700BF242A002004ED00E0F8B5A8B141
:1055A0000D4616461F46044600F04EFE0FB1236D11
:1055B0003B6094F85430DBB2022284F85420042E6D
:1055C0001FD8DFE806F02B0C111619004FF010035E
:1055D00083F31188BFF36F8FBFF34F8FFEE7226D08
:1055E0001543256501251AE0226D0132226501254A
:1055F00015E02565012512E0022B16D02565012551
:105600000DE0226DB2F1FF3F11D04FF0100383F394
:105610001188BFF36F8FBFF34F8FFEE70125012B7A
:1056200007D000F033FE2846F8BD0025F7E7012536
:10563000F5E7261D304600F04FFFE06A0122824068
:10564000144BD3F8E4100A43C3F8E420303300EBE2
:105650008000314603EB800000F01AFFA36A43B1DB
:105660004FF0100383F31188BFF36F8FBFF34F8F99
:10567000FEE7E26A074BD3F8D830DB6A9A42D0D90A
:10568000054B4FF080521A60BFF34F8FBFF36F8FFF
:10569000C7E700BF242A002004ED00E02DE9F8430D
:1056A000089E10B30D4617469946044600F0B6FE14
:1056B000EFF311884FF0100383F31188BFF36F8F5E
:1056C000BFF34F8FB9F1000F02D0236DC9F800303E
:1056D00094F85430DBB2022284F85420042F1FD8EF
:1056E000DFE807F02B0C111619004FF0100383F3BD
:1056F0001188BFF36F8FBFF34F8FFEE7226D154305
:10570000256501251AE0226D01322265012515E08B
:105710002565012512E0022B17D0256501250DE036
:10572000226DB2F1FF3F12D04FF0100383F31188C6
:10573000BFF36F8FBFF34F8FFEE70125012B08D01A
:1057400088F311882846BDE8F8830025F6E701258F
:10575000F4E7A36A43B14FF0100383F31188BFF35A
:105760006F8FBFF34F8FFEE7164BD3F8F0301BBBA4
:10577000271D384600F0B0FEE06A01228240114B3E
:10578000D3F8E4100A43C3F8E420303300EB800080
:10579000394603EB800000F07BFEE26A094BD3F848
:1057A000D830DB6A9A42CBD90EB101233360054B66
:1057B0000122C3F80021C3E704F11801024800F0F8
:1057C00067FEEAE7242A0020382A0020F8B5D8B17D
:1057D0000D46044600F022FEEFF311874FF0100350
:1057E00083F31188BFF36F8FBFF34F8F94F854305A
:1057F000DBB2022284F85420226D01322265012B93
:105800000BD087F31188F8BD4FF0100383F3118894
:10581000BFF36F8FBFF34F8FFEE7A36A43B14FF023
:10582000100383F31188BFF36F8FBFF34F8FFEE731
:10583000164BD3F8F0301BBB261D304600F04CFE53
:10584000E06A01228240114BD3F8E4100A43C3F806
:10585000E420303300EB8000314603EB800000F0A1
:1058600017FEE26A094BD3F8D830DB6A9A42C8D9EE
:105870000DB101232B60054B0122C3F80021C0E7C5
:1058800004F11801024800F003FEEAE7242A002090
:10589000382A002010B5044658B100F0D5FC94F821
:1058A0005430DBB2022B08D0002400F0EFFC20467D
:1058B00010BD044BD3F8D840EFE7002384F85430F0
:1058C0000124F2E7242A002070B50C46054668B191
:1058D00000F0BAFC074BD3F8D8301E6D2B6D23EACD
:1058E00004032B6500F0D2FC304670BD014BD3F8A9
:1058F000D850EDE7242A0020064B1A6813682BB90C
:105900000123036023B9D368186870470023F8E7C0
:1059100000207047282B002008B5416000619142AB
:105920000CD8D21A83699A4201D3012008BD011D07
:10593000094B586800F0B7FD0020F7E79A4201D202
:10594000994206D2011D044B186800F0ACFD0020FE
:10595000ECE70120EAE700BF282B002070B500F03B
:1059600073FC0F4B9B6813B100F090FC70BD0C4CA6
:1059700004F10C06304600F07DFD04F120052846B8
:1059800000F078FD2660656000220C210A2000F0FE
:10599000B2FEA0600028E7D0024901F0E7FBE3E790
:1059A000282B00209C7F00082DE9F041079C41B97D
:1059B0004FF0100383F31188BFF36F8FBFF34F8F46
:1059C000FEE7074615461E4688468CB1FFF7C6FF20
:1059D0002760C4F81880E661069B2362201D00F052
:1059E00054FD2DB194F8283043F0040384F8283096
:1059F000BDE8F08100B583B0FFF7B0FF0D4B9B68A9
:105A00005BB10D4B01930223009300234FF480728E
:105A10000A490B48FEF7B0FC40B94FF0100383F37E
:105A20001188BFF36F8FBFF34F8FFEE703B05DF8B0
:105A300004FB00BF282B00205C2B0020A47F000863
:105A4000795D00082DE9F04182B00446884617468A
:105A50001D462C2000F09CFA064658B1002380F821
:105A600028300190089B00932B463A464146204639
:105A7000FFF79AFF304602B0BDE8F081C0B110B523
:105A800084B014461A4603461648806838B301911C
:105A90000294039305291CDCFFF7A4FB022810D015
:105AA00000231A4601A90F48806800F065FE14E043
:105AB0004FF0100383F31188BFF36F8FBFF34F8F45
:105AC000FEE70023069A01A90648806800F054FE0C
:105AD00003E0002301A900F046FF04B010BD002040
:105AE000FBE700BF282B0020214B1B681A68002A07
:105AF00039D070B582B0DB681E68DC68251D284689
:105B000000F0EAFC236A2046984794F8283013F006
:105B1000040F0AD1164B1B681A68002AEBD1144AED
:105B200051681160536002B070BDA36933449E4256
:105B300007D26360246129460D4B186800F0B3FC5E
:105B4000E8E7002100910B4632462046FFF796FF1A
:105B50000028DFD14FF0100383F31188BFF36F8F5C
:105B6000BFF34F8FFEE7024A5168116053607047E0
:105B7000282B002038B50546FEF774FE0446074B77
:105B80009B6B834205D800232B60044B9C6320460B
:105B900038BDFFF7A9FF01232B60F6E7282B002073
:105BA00070B582B005460E46174B1B68DB68DC6893
:105BB000201D00F091FC94F8283013F0040F08D158
:105BC00023F0010384F82830236A2046984702B066
:105BD00070BDA1692B46324629442046FFF79CFE42
:105BE0000028F1D0002100910B462A462046FFF7FD
:105BF00045FF0028E8D14FF0100383F31188BFF36D
:105C00006F8FBFF34F8FFEE7282B002070B582B057
:105C100006460C46FEF71CFE01A8FFF7ABFF019BF2
:105C200023BB05460CB9B04217D224B1114A5268C1
:105C30001268CAB901242246711B0E4B986801F004
:105C4000E5FAFEF7CBFE98B90B4B4FF080521A6085
:105C5000BFF34F8FBFF36F8F0AE0FEF7BFFE2946F9
:105C60003046FFF79DFF03E01C46E4E7FEF7B6FE73
:105C700002B070BD282B002004ED00E010B586B006
:105C8000002203A93B4B986800F02EFF00286ED03D
:105C9000039B002BF4DB059C636913B1201D00F00E
:105CA0001BFC02A8FFF766FF039B092BE8D8DFE87F
:105CB00003F00505053037500505303794F82830D6
:105CC00043F0010384F82830049BA169024619447B
:105CD0002046FFF721FE0028D2D0236A20469847AD
:105CE00094F8283013F0040FCAD0A2690021009163
:105CF0000B46049802442046FFF7C0FE0028BFD19F
:105D00004FF0100383F31188BFF36F8FBFF34F8FF2
:105D1000FEE794F8283023F0010384F82830AFE739
:105D200094F8283043F0010384F828300499A161E5
:105D300031B10346024601442046FFF7EDFD9FE7DF
:105D40004FF0100383F31188BFF36F8FBFF34F8FB2
:105D5000FEE794F8283013F0020F04D023F001037B
:105D600084F828308CE7204600F08EF988E706B0EA
:105D700010BD00BF282B002000B583B001A8FFF79D
:105D8000BBFD0199FFF742FFFFF778FFF6E7000040
